:0200000280007C
:10000000282607201906080015060800150608000E
:100010001506080015060800150608000000000077
:1000200000000000000000000000000015060800AD
:100030001506080000000000150608001506080057
:100040001506080015060800150608001506080024
:100050001506080015060800150608001506080014
:100060001506080015060800000000004D030800F2
:100070006103080075030800890308000000000000
:100080000000000015060800150608001506080007
:1000900015060800150608001506080015060800D4
:1000A00015060800000000001506080015060800E7
:1000B00015060800150608001506080015060800B4
:1000C00015060800150608001506080015060800A4
:1000D00015060800BD0A08001506080015060800E8
:1000E0001506080015060800150608001506080084
:1000F0001506080010B5054C237833B9044B13B12D
:100100000448AFF300800123237010BD7005072061
:1001100000000000A01008000C4B43B10C4810B5C3
:100120000C49AFF300800C48036823B910BD0A489E
:10013000036833B97047094B002BF7D0BDE8104076
:100140001847064B002BF5D0184700BF00000000F1
:10015000A010080074050720A0100800000000008F
:1001600030B4012404600024446040F20225C0F849
:100170002051C0F80441C0F8144145685200B1FB59
:10018000F2F2013A120292B22B431A434260204625
:1001900030BC7047436823F0100343604368194341
:1001A000416070474368D201D2B219430A434260AA
:1001B000704770B4082A10D86AB14C1E013AD2B206
:1001C00011440022856814F8013F93402B4383605B
:1001D0000432A142F6D170BC70474D1E00248668DF
:1001E00015F8013FA340334383600434202CF6D13B
:1001F000083A002AEFDD00252B46C6684C19247A00
:10020000AD00AC403443C4600133DBB21D469342C1
:10021000F3DBE0E710B44468090601F070612143A4
:100220000A43190701F040511143416010BC704767
:10023000022303607047012303FA01F10161704753
:10024000012303FA01F141617047006A7047036CB2
:1002500043F0807303647047436843F00043436096
:10026000704741627047006B7047D0F894300902C4
:1002700001F440711943C0F894107047D0F89430DD
:1002800023F01003C0F89430704700002DE9F041CE
:10029000044688460E4B9847054620460D4B984726
:1002A000054013D00C4C04F1600603E0B4420DD0BD
:1002B00010345DB120684045F8D161682942F5D01D
:1002C000E3689847636825EA0305EFE7BDE8F08136
:1002D0008B0408008F0408008C050720F8B5184C23
:1002E0002668062E29D84FF0000C6446154F04E00E
:1002F0000134E4B2A446A64209D3A64625017D599D
:100300008D42F5D107EB04156D689542F0D10D4D86
:100310004FEA0E1E05EB0E0445F80E106260A36056
:100320000699E1600136664504BF05490E60114635
:100330001A46054B98470020F8BD0120F8BD00BFC4
:10034000FC0507208C0507205904080008B50B217F
:100350000148024B984708BD000E0E408D02080070
:1003600008B50C210148024B984708BD00100E400B
:100370008D02080008B50D210148024B984708BDC1
:1003800000120E408D02080008B50E210148024BF4
:10039000984708BD00140E408D02080010B50E48A5
:1003A0000E4B98473E2100200D4B98470D4CA0471F
:1003B0000028FCD00C4B98470C4A0D4B9A620D4C10
:1003C000A0470028FCD010200B4B98470B4B9847B8
:1003D0000148024B984710BD00BD0105B100072040
:1003E000F90408004D0508005D050800013F0D20D7
:1003F00000060E406D05080095040800B1060800CF
:10040000416412F0010F14BF4166016612F00A0F39
:1004100014BF0162416212F0020F07D112F0080FFF
:1004200018BFC0F88410416101607047C0F88010A7
:10043000F9E710B4019C416444B9016643B1016518
:1004400042B941630161016010BC70474166F5E744
:100450004165F5E70163F5E712F0100F10D0C0F821
:10046000B01012F0200F14BFC0F8D410C0F8D01094
:1004700012F0400F14BFC0F8C010C0F8C41070478D
:10048000C0F8B410704701647047C06C7047806C4E
:1004900070470000174A136B23F070031843106372
:1004A000936E13F0080F0AD14FF4006311498A6E5E
:1004B00012F0080F03D1013BF9D1012070470D4A1A
:1004C000136B23F0030343F002031363936E13F0E3
:1004D000080F0AD14FF4006306498A6E12F0080F24
:1004E00005D1013BF9D10120704700207047002061
:1004F000704700BF00060E40C8B9114A136A0902CE
:1005000089B223F45C1323F0030343F45C1343F038
:1005100001030B431362936E13F0010FFBD0084AE3
:10052000136A43F09B7343F48033136270470449AA
:100530000B6A044A1A40044B13430B62704700BF16
:1005400000060E40FCFFC8FE02003701024B986E09
:1005500000F48030704700BF00060E404FF000529C
:10056000014B9A62704700BF00060E40024B986E26
:1005700000F00200704700BF00060E402C281ED875
:100580001F280CD8114B9A6901238340934318D03C
:10059000012303FA00F00D4B18610020704720384A
:1005A0000A4BD3F808210123834093430BD0012346
:1005B00003FA00F0054BC3F800010020704701204A
:1005C0007047002070470020704700BF00060E40B3
:1005D00010B54FF400420C4B5A600B200B4CA04757
:1005E0000C20A0470D20A0470E20A047084B4FF439
:1005F00040721A665A655A62C3F88020196F21F456
:10060000407119675A6010BD501A0E407D050800F0
:10061000000E0E40FEE7000008B51C4B1C4A9A4233
:1006200010D01C4B194A9A420CD2013B9B1A23F062
:10063000030304331344164951F8040B42F8040B26
:100640009A42F9D1144B154A9A420AD2013B9B1A9D
:1006500023F0030304331344002142F8041B9342A4
:10066000FBD10F4B23F0604222F07F020D498A60DC
:1006700003F16043B3F5801F03D28B6843F000534E
:100680008B60094B9847094B9847FEE7000007200D
:10069000A010080070050720240607207005072019
:1006A0000000080000ED00E0290F0800750E0800AA
:1006B0003D4B1B6B03F00303032B0ED8DFE803F065
:1006C000021C3838394B5B6913F0800F14BF4FF4AC
:1006D00000424FF4FA42364B1A60334B1B6B03F067
:1006E0007003702B57D0304B1A6B3149C2F3021292
:1006F0000B68D3400B6070472B4B1B6A13F0807F55
:1007000003D02C4A2A4B1A60E7E72B4A284B1A6081
:10071000254B1B6A03F07003102B05D0202BDCD176
:10072000244A234B1A60D8E7244A214B1A60D4E7A5
:100730001D4B1B6A13F0807F0CD01E4A1C4B1A60A5
:10074000194B1B6B03F00303022B16D01C4A184BEA
:100750001A60C2E7184A164B1A60134B1B6A03F063
:100760007003102B05D0202BEAD1124A104B1A60CF
:10077000E6E7124A0E4B1A60E2E70B4A916A926A68
:100780000B48C1F30A41036801FB0333D2B2B3FB48
:10079000F2F30360A1E7064A13680A49A1FB0313B9
:1007A0005B081360704700BF00060E40101A0E4031
:1007B00038010720001BB70000093D0000127A0035
:1007C000001C4E0EABAAAAAA034B4FF000725A634C
:1007D0004FF400121A63704700120E4008B5074B21
:1007E000DB6B13F0006F4FF00062044B14BF5A63D1
:1007F0001A630348034B984708BD00BF00100E4022
:10080000808D5B000100072010B582B01348144BA7
:100810009847144BDB6BC3F3C033134A1370137840
:10082000DBB2012B0DD00F484FF4000343630F4B95
:10083000009340234FF400420D210D4CA04702B01D
:1008400010BD08484FF400030363084B0093502386
:100850004FF400420D21064CA047F0E7E09304005E
:100860000100072000120E400C06072009080800AE
:10087000DD02080010B582B01348144B9847144BA2
:10088000DB6BC3F38033134A13701378DBB2012B95
:100890000DD00F484FF0807343630F4B00935023EC
:1008A0004FF480420D210D4CA04702B010BD084806
:1008B0004FF080730363084B009340234FF4804252
:1008C0000D21064CA047F0E7E0930400010007204B
:1008D00000120E400C06072075080800DD02080013
:1008E00008B5134BDB6B13F4802F12D14FF08062ED
:1008F000104B1A634FF48042A3F500735A630E4AFB
:100900001368013313604FF4802109480B4B98475B
:1009100008BD094A1368013B13604FF08062054B24
:100920005A634FF48042A3F500731A63EBE700BFEC
:1009300000120E4000100E40080607208704080031
:1009400038B525201C4B98471C4C4FF480231C4A7B
:100950001C4920461C4DA84701234FF4401200219A
:1009600020461A4DA847002211462046184B9847AA
:1009700000212046174B98472046174B98470422E2
:1009800016492046164B98472046164B984700219B
:100990002046154B984701212046144B9847204686
:1009A000134B98474FF080712046124B98472022F6
:1009B000114B5A6038BD00BF7D05080000000C4097
:1009C00000D4300000BD01056101080015020800D7
:1009D000A5010800950108004F0208003C0107200E
:1009E000B301080059020800370208006B02080032
:1009F0007D0208006302080000E100E0284B1A783D
:100A0000284B1B78A3F10A018A4223DA264B0222E3
:100A10001A6301225A63254B1A78254B1B78A3F1E0
:100A20000A018A4222DA204B08221A6304225A63FE
:100A3000204B1A78204B1B78A3F10A018A4220DB55
:100A40000A339A4224DC184B40225A634FF4007256
:100A50005A6370470A339A42134B4FF002025A63AB
:100A60004FF00102CCBF1A635A63D4E70A339A42AB
:100A70000D4B4FF00402CCBF1A635A6308225A632D
:100A8000D6E7094B40221A634FF400725A6370474D
:100A9000054B4FF400721A6340225A63704700BF3F
:100AA000000607200106072000140E40020607205A
:100AB00003060720040607200506072010B5374A5D
:100AC00013780133DBB21370022B2BD0032B46D0EB
:100AD000012B00D010BD3248324B984710F0807F78
:100AE00010D12F4C002120462F4B98470121204642
:100AF0002E4B98472E4B1A782E4B1A7020462E4BB1
:100B0000984710BD26482D4B9847294B18702C4B01
:100B10001B68C3F303312B4A1160C3F30B032A4A4A
:100B20001360DEE71E481F4B984710F0807F10D1FE
:100B30001B4C012120461C4B9847022120461B4B91
:100B40009847224B1A78224B1A7020461A4B984726
:100B500010BD1348194B98471C4B1870E8E7104814
:100B6000104B984710F0807F11D10D4C0221204688
:100B70000D4B9847002120460C4B984720460E4BC2
:100B800098470022054B1A70124B9847A2E7044879
:100B90000A4B9847104B1870E7E700BF060607207E
:100BA00000000C40670208004102080037020800FC
:100BB000000607200E060720310208004B0208003D
:100BC000100607202006072014060720020607202B
:100BD0000F060720FD09080004060720064B1A78B7
:100BE000064B1A70064B1A78064B1A70064B1A7889
:100BF000064B1A70704700BF000607200106072049
:100C00000206072003060720040607200506072022
:100C100008B5054B4FF400125A634FF000721A6387
:100C2000024B984708BD00BF00120E40DD0B0800C4
:100C300070B582B00D204E4B98474E4C0125009563
:100C400000231A46582120464B4EB04700950023FA
:100C50001A4657212046B047009500231A465921CD
:100C60002046B047009500231A4655212046B0473C
:100C7000009500231A460E212046B0470095002318
:100C80001A463A212046B0472A464FF400512046E2
:100C90003A4EB0472A464FF480512046B0472A4684
:100CA0004FF480412046B0472A464FF40041204689
:100CB000B0472A464FF480312046B0472A464FF4C9
:100CC00000312046B0472A464FF480212046B047E5
:100CD0002B4B009340234FF480520D212046294D89
:100CE000A847294B009340234FF400520D21204682
:100CF000A847264B009340234FF480420D21204605
:100D0000A847234B009340234FF400420D21204677
:100D1000A847204B009340234FF480320D212046FA
:100D2000A8471D4B009370234FF400320D2120463D
:100D3000A8474FF480512046184DA8474FF4005162
:100D40002046A8474FF480412046A8474FF4004171
:100D50002046A8474FF480312046A8474FF4003181
:100D60002046A8474FF400520D4B1A6002B070BDE8
:100D70007D05080000120E4033040800010408003D
:100D8000DD070800DD020800110C080075080800E6
:100D900009080800C9070800E108080087040800DE
:100DA00000E100E02DE9F04F2E494FF000630B61A8
:100DB000C1F8A0302C4A4FF4001BC2F810B0C2F8A2
:100DC000A0B04FF0007AC2F810A0C2F8A0A04FF473
:100DD0000009C2F81090C2F8A0904FF08078C2F8D5
:100DE0001080C2F8A0804FF0806CC1F810C0C1F82C
:100DF000A0C01E484FF480430361C0F8A0301C4BD4
:100E00004FF0020EC3F810E0C3F8A0E001271F6105
:100E1000C3F8A07004261E61C3F8A06008251D61F8
:100E2000C3F8A05040241C61C3F8A0404FF40074E4
:100E30001C61C3F8A040C2F830B0C2F834A0C2F8B8
:100E40003090C2F83080C1F834C0C3F834E05F633A
:100E50005E635D635C6340225A634FF48043436387
:100E6000BDE8F08F00100E4000120E40000E0E4044
:100E700000140E4008B51B4B98471B4B98474FF486
:100E800000421A4B5A601A4B98471A4B98471A4B14
:100E900098472022194B5A6019481A4B98471A4A0A
:100EA000D36BC3F3404319490B70D36BC3F3804337
:100EB000174A13700022174B1A600222164B1A6051
:100EC0004FF00062154B1A631C46154E154DE36B2F
:100ED00013F0006F4FF0006314BF63632363304669
:100EE000A847F4E79D030800D1050800501A0E40FA
:100EF000310C0800A50D08004109080000E100E0E0
:100F000000000C403102080000120E400C060720C1
:100F10000D060720080607204001072000100E409C
:100F2000808D5B000100072070B50F4E0F4D761BC2
:100F3000B61018BF002405D0013455F8043B98477B
:100F4000A642F9D10A4E0B4D00F098F8761BB61068
:100F500018BF002406D0013455F8043B9847A64238
:100F6000F9D170BD70BD00BF88100800881008005E
:100F70009010080088100800024B13B1024800F0DE
:100F800005B8704700000000990F080000230146D3
:100F90001A46184600F01AB838B50A4C0A4D641BB8
:100FA000A4100AD004F18043013B05EB8305013C0A
:100FB00055F804399847002CF9D1BDE8384000F0C5
:100FC00067B800BFA01008009C1008002DE9F0478A
:100FD000274C074626688846D6F8484192469946E7
:100FE000002C3CD065681F2D1ADC05F1010E7FB185
:100FF000012004EB8503C3F888A0D4F8881100FA17
:1010000005F21143022FC4F88811C3F8089120D0CB
:101010000235C4F804E0002044F82580BDE8F087DC
:10102000144B0BB34FF4C870AFF300800446D8B133
:101030000020D6F848314FF0010E6060236005466D
:10104000C6F84841C4F88801C4F88C01002FDFD0ED
:10105000CEE7D4F88C311A43C4F88C21D8E706F5D2
:10106000A674C6F84841BDE74FF0FF30BDE8F087F1
:10107000781008000000000048010720F8B500BF04
:10108000F8BC08BC9E467047790F0800190108009B
:10109000F8B500BFF8BC08BC9E467047F5000800D4
:1010A000BFF35F8F0138FBD1704700004FF48063BE
:1010B000204A136002F5007213601F4B1B6A13F085
:1010C000807F07D11D4A1C4B1A621A46936E13F09B
:1010D000010FFBD01A4A184B1A621A46936E13F48A
:1010E000803FFBD0144A136B23F0030343F001034A
:1010F0001363936E13F0080FFBD0124A0E4B9A62E3
:101100001A46936E13F0020FFBD011220A4B1A639A
:101110001A46936E13F0080FFBD01222064B1A6387
:101120001A46936E13F0080FFBD0074A074B1A605C
:10113000704700BF000A0E4000060E400908370045
:1011400009083701013F0D2000BD010538010720C6
:101150001B4B984215D91B4B984219D91A4B9842F0
:101160001ED91A4B984223D9194B984294BF4FF479
:1011700080634FF4A063174A136002F50072136096
:1011800070470023134A136002F500721360704722
:101190004FF480730F4A136002F5007213607047BA
:1011A0004FF400730B4A136002F50072136070472E
:1011B0004FF44073074A136002F5007213607047E2
:1011C000BFEA21017FF0FA02FF8FD003FFB3C4040E
:1011D0007F4A5D05000A0E4000093D000706050430
:1011E000020000000000000000000000340407209E
:1011F0009C040720040507200000000000000000F8
:1012000000000000000000000000000000000000DE
:1012100000000000000000000000000000000000CE
:1012200000000000000000000000000000000000BE
:1012300000000000000000000000000000000000AE
:10124000000000000000000000000000000000009E
:10125000000000000000000000000000000000008E
:10126000000000000000000000000000000000007E
:10127000000000000000000000000000000000006E
:10128000000000000000000000000000000000005E
:1012900001000000000000000E33CDAB34126DE6FB
:1012A000ECDE05000B000000000000000000000064
:1012B000000000000000000000000000000000002E
:1012C000000000000000000000000000000000001E
:1012D000000000000000000000000000000000000E
:1012E00000000000000000000000000000000000FE
:04000003800006195A
:00000001FF
